:020000040800F2
:10000000880400203D0500089D0500089D050008A6
:100010009D0500089D0500089D05000800000000E2
:100020000000000000000000000000009D05000826
:100030009D050008000000009D050008F91B000850
:100040009D0500089D0500089D0500089D05000808
:100050009D0500089D0500089D0500089D050008F8
:10006000B91B00089D0500089D050008811A0008BD
:100070009D0500089D0500089D0500089D050008D8
:100080009D0500089D050008411B00089D0500080E
:100090009D0500089D0500089D0500089D050008B8
:1000A0009D0500089D0500089D0500089D050008A8
:1000B0009D0500089D0500089D0500089D05000898
:1000C0009D0500089D0500089D0500089D05000888
:1000D0009D0500089D0500089D0500089D05000878
:1000E0009D0500089D0500089D0500080000000012
:1000F0000000000000000000000000000000000000
:1001000000000000000000005FF808F180B485B036
:1001100000AF786039600023FB817B681B88FB811E
:100120007B682E4A934213D07B682D4A93420FD0AE
:100130007B68B3F1804F0BD07B682A4A934207D08B
:100140007B68294A934203D07B68284A934208D1AE
:10015000FB8923F07003FB813B685A88FB891343BA
:10016000FB817B68224A93420CD07B68214A9342F0
:1001700008D0FB8923F44073FB813B68DA88FB8954
:100180001343FB817B68FA891A803B689A887B68F5
:100190009A853B681A887B681A857B680F4A934268
:1001A0000FD07B680E4A93420BD07B68124A934271
:1001B00007D07B68114A934203D07B68104A934270
:1001C00004D13B681B7A9AB27B681A867B6801224D
:1001D0009A8200BF1437BD4680BC7047002C014096
:1001E000003401400004004000080040000C0040C2
:1001F0000010004000140040004001400044014055
:100200000048014080B485B000AF786039600023B9
:10021000BB8100237B810023FB817B681B8C9BB20D
:1002200023F480539AB27B681A847B681B8C7B8191
:100230007B689B88FB817B689B8BBB81BB8923F49C
:10024000E043BB81BB8923F44073BB813B681B88BF
:100250001B029AB2BB891343BB817B8923F40053F1
:100260007B813B681B891B039AB27B8913437B818B
:100270003B685B881B039AB27B8913437B817B6855
:10028000124A934203D07B68114A93420AD1FB89F8
:1002900023F48043FB813B689B899B019AB2FB89D5
:1002A0001343FB817B68FA899A807B68BA899A83B9
:1002B0003B68DA887B68A3F840207B687A891A84D7
:1002C00000BF1437BD4680BC704700BF002C014002
:1002D0000034014080B483B000AF78607B684FF693
:1002E000FF729A807B6800221A807B680022DA8085
:1002F0007B6800225A807B6800221A7200BF0C378C
:10030000BD4680BC704700BF80B483B000AF78604A
:100310000B46FB70FB78002B08D07B681B889BB2D8
:1003200043F001039AB27B681A8007E07B681B8860
:100330009BB223F001039AB27B681A8000BF0C378E
:10034000BD4680BC704700BF80B483B000AF78600A
:100350000B467B8013467B707B78002B08D07B6834
:100360009B899AB27B8813439AB27B689A8109E091
:100370007B689B899AB27B88DB439BB213409AB21D
:100380007B689A8100BF0C37BD4680BC704700BFB8
:1003900080B483B000AF78600B467B807B689B881D
:1003A0009BB223F070039AB27B689A807B689B882B
:1003B0009AB27B8813439AB27B689A8000BF0C374D
:1003C000BD4680BC704700BF80B500AF154A154BD5
:1003D0001B6843F0010313601249124B5A68124B19
:1003E00013404B600F4A0F4B1B6823F0847323F4B8
:1003F000803313600B4A0B4B1B6823F4802313607C
:10040000084A084B5B6823F4FE035360054B4FF426
:100410001F029A6000F00CF8044B4FF000629A60E3
:1004200000BF80BD001002400000FFF800ED00E0BA
:1004300080B500AF00F002F800BF80BD80B483B08B
:1004400000AF00237B6000233B603A4A394B1B68B6
:1004500043F480331360374B1B6803F400333B6075
:100460007B6801337B603B68002B03D17B68B3F56D
:10047000A06FF0D12F4B1B6803F40033002B02D088
:1004800001233B6001E000233B603B68012B4BD123
:10049000294A294B1B6843F010031360264A264B58
:1004A0001B6823F003031360234A234B1B6843F0AC
:1004B000020313601F4A1F4B5B6853601D4A1D4BAC
:1004C0005B6853601B4A1B4B5B6843F4806353605B
:1004D000184A184B5B6823F47C135360154A154B7C
:1004E0005B6843F4E8135360124A124B1B6843F0F5
:1004F0008073136000BF0F4B1B6803F00073002B69
:10050000F9D00C4A0B4B5B6823F003035360094A94
:10051000084B5B6843F00203536000BF054B5B6808
:1005200003F00C03082BF9D100BF0C37BD4680BC8B
:10053000704700BF001002400020024080B582B02A
:1005400000AF114B7B60114B3B6007E03B681A1D0D
:100550003A607A68111D796012681A603B680C4A2B
:100560009342F3D30B480C494FF000028842B8BFC6
:1005700040F8042BFADBFFF727FF00F085F900BFF6
:100580000837BD4680BD00BFE826000800000020F7
:1005900000000020000000208800002080B400AF90
:1005A000FEE700BF80B489B000AF786039600023F7
:1005B000FB6100233B610023BB610023FB60002340
:1005C0007B610023BB603B68DB7803F00F03FB61BA
:1005D0003B68DB7803F01003002B05D03B689B7869
:1005E0001A46FB691343FB613B681B88DBB2002B97
:1005F00044D07B681B687B610023BB6138E001222B
:10060000BB6902FA03F3FB603B681B881A46FB6870
:1006100013403B613A69FB689A4226D1BB699B0053
:10062000FB600F22FB6802FA03F3BB60BB68DB438D
:100630007A6913407B61FA69FB6802FA03F37A690D
:1006400013437B613B68DB78282B05D10122BB6912
:100650009A407B685A6108E03B68DB78482B04D1FC
:100660000122BB699A407B681A61BB690133BB6197
:10067000BB69072BC3D97B687A691A603B681B8802
:10068000FF2B46D97B685B687B610023BB613AE046
:10069000BB690833012202FA03F3FB603B681B8845
:1006A0001A46FB6813403B613A69FB689A4227D1BE
:1006B000BB699B00FB600F22FB6802FA03F3BB607F
:1006C000BB68DB437A6913407B61FA69FB6802FA15
:1006D00003F37A6913437B613B68DB78282B05D1F0
:1006E000BB69083301229A407B685A613B68DB781A
:1006F000482B05D1BB69083301229A407B681A61F7
:10070000BB690133BB61BB69072BC1D97B687A69BF
:100710005A6000BF2437BD4680BC704780B485B0A6
:1007200000AF78600B467B800023FB737B689A6880
:100730007B881340002B02D00123FB7301E00023D0
:10074000FB73FB7B18461437BD4680BC704700BF67
:1007500090B484B000AF03460A46FB711346BB71E8
:100760000023FB60BB7903F003039B000F2202FA16
:1007700003F3FB601649BB799B08DBB21846144AA9
:10078000BB799B08DBB2023352F82320FB68DB43C2
:100790001A40831C41F823200D48BB799B08DBB22B
:1007A0001C460B4ABB799B08DBB2023352F823206C
:1007B000F979BB7903F003039B0001FA03F31A43B1
:1007C000A31C40F8232000BF1037BD4690BC7047E3
:1007D0000000014080B483B000AF03463960FB7174
:1007E00097F90730002B0BDA0D49FB7903F00F0363
:1007F000043B3A68D2B21201D2B20B441A7609E035
:10080000084997F907303A68D2B21201D2B20B44C4
:1008100083F8002300BF0C37BD4680BC704700BF83
:1008200000ED00E000E100E080B582B000AF78604C
:100830007B68B3F1807F01D3012311E00A4A7B6812
:1008400023F07F43013B53600F214FF0FF30FFF750
:10085000C1FF054B00229A60034B07221A60002358
:1008600018460837BD4680BD10E000E080B500AFF7
:100870006FF0040001F0A6F80248FFF7D5FF00BFB3
:1008800080BD00BF8F5F010080B500AF00F020F891
:1008900000F05AF800F07AF801F0B0F800F034F9FE
:1008A00000F0E8FB01F0D6F8FFF7E0FF62B600F0D9
:1008B00035FC054B4FF496721A80044B4FF4967238
:1008C0001A8000F0B3F8FCE7020000200A000020C4
:1008D00080B582B000AF00F0DDF94FF4803000F059
:1008E00007FA00F033FA0346FB71FB79012B27D19D
:1008F000002000F0ABFA4FF4806000F0C3FA002053
:1009000000F0DCFA4FF4004000F0F4FA4FF4E0118C
:100910004FF4803000F042FA012000F05DFA00BF91
:10092000392000F05DFB0346002BF9D1022000F0D6
:1009300063FA00BF00F07CFA0346082BFAD100E00E
:10094000FEE70837BD4680BD80B500AF012101201C
:1009500000F0ECFA01214FF4007000F005FB0121DA
:100960004FF4806000F000FB0121042000F0FCFA4D
:100970000121022000F016FB0121012000F012FBF2
:100980000121012000F0F0FA00BF80BD80B584B0E5
:1009900000AF0023FB730223BB8107F10C03194650
:1009A0001648FFF7FFFD0023FB730123BB8107F10E
:1009B0000C0319461148FFF7F5FD1823FB720823B5
:1009C0003B810123BB7207F1080319460B48FFF76F
:1009D000E9FD2823FB7140F20463BB800123BB7156
:1009E0003B1D19460548FFF7DDFD02210020FFF7FA
:1009F000AFFE00BF1037BD4680BD00BF00080140FC
:100A000080B500AF084B1B78002B03D1064B0122A9
:100A10001A7002E0044B00221A704FF47A7000F052
:100A2000C7FE00BF80BD00BF0800002080B582B0B7
:100A300000AF4FF480613148FFF770FE0346002B92
:100A40002CD000F053FE02462D4B1A601EE000F041
:100A50004DFE02462A4B1B68D31A2A4AA2FB0323E7
:100A60009B09DBB20133FB71FB79184600F048FEAD
:100A70004FF4FA7000F09CFE4FF400711F48FFF72E
:100A80004DFE0346002B01D0FFF7BAFF4FF4806103
:100A90001A48FFF743FE0346002BD8D14FF40071EC
:100AA0001648FFF73BFE0346002B22D000F01EFE47
:100AB0000246134B1A6014E000F018FE0246104B79
:100AC0001B68D31A0F4AA2FB03239B09DBB2013335
:100AD000BB71BB79184600F045FE4FF4FA7000F088
:100AE00067FE4FF400710548FFF718FE0346002B20
:100AF000E2D100BF0837BD4680BD00BF00080140FD
:100B000004000020D34D621080B596B000AF3223B0
:100B1000BB6300237B6300237B654B4B3B634FF43C
:100B20008063BB6480233B642023FB64474BFB62F0
:100B30004FF480737B640023FB634FF400533B65E9
:100B400001220221424800F0A3FE07F12C031946BE
:100B50003F4800F043FE01213D4800F07DFE0123A7
:100B60007B7700237B624FF460233B620023BB61F1
:100B7000012387F8283000233B7707F11803194633
:100B8000344800F083FB062301220121314800F0A4
:100B90007DFC01212F4800F0CBFB2E4800F022FC09
:100BA00000BF2C4800F03EFC0346002BF9D1294839
:100BB00000F028FC00BF274800F034FC0346002B5F
:100BC000F9D10121234800F0CFFB00237B720023E1
:100BD0003B614FF40023FB6000237B6001233B75E6
:100BE00000233B723B1D19461B4800F04FFB0723B7
:100BF00001220021184800F049FC01224FF408713D
:100C0000154800F0CDFB144800F0ECFB00BF124883
:100C100000F008FC0346002BF9D10F4800F0F2FB6E
:100C200000BF0D4800F0FEFB0346002BF9D1012167
:100C3000094800F07DFB0121074800F00BFC00BFD4
:100C40005837BD4680BD00BF240000204C24014021
:100C500008000240002401400028014080B500AF98
:100C60000121044800F064FB0121024800F0F2FB7E
:100C700000BF80BD0024014080B500AF00210448C2
:100C800000F0E8FB0021024800F052FB00BF80BDED
:100C90000024014080B400AF134A134B1B6843F09B
:100CA000010313601049104B5A68104B13404B60FE
:100CB0000D4A0D4B1B6823F0847323F480331360BB
:100CC000094A094B1B6823F480231360064A064B2C
:100CD0005B6823F4FE035360034B4FF41F029A60DA
:100CE00000BFBD4680BC7047001002400000FFF806
:100CF00080B483B000AF7860134A134B1B6823F4B1
:100D000080331360104A104B1B6823F48023136058
:100D10007B68B3F5803F03D0B3F5802F07D00DE09B
:100D2000094A094B1B6843F48033136006E0064A06
:100D3000054B1B6843F4A023136000BF00BF0C37B2
:100D4000BD4680BC704700BF0010024080B582B035
:100D500000AF00233B600023FB710023BB713120F7
:100D600000F03EF90346BB713B6801333B603B68D2
:100D7000B3F5A06F02D0BB79002BF0D0312000F08A
:100D80002FF90346002B02D00123FB7101E0002361
:100D9000FB71FB7918460837BD4680BD80B485B02D
:100DA00000AF786039600023FB600A4B5B68FB6032
:100DB000FB6823F47C13FB607A683B681343FA6892
:100DC0001343FB60034AFB68536000BF1437BD4602
:100DD00080BC70470010024080B483B000AF03466F
:100DE000FB71044AFB79136000BF0C37BD4680BC21
:100DF000704700BF6000424280B485B000AF7860A9
:100E00000023FB60094B5B68FB60FB6823F0030376
:100E1000FB60FA687B681343FB60044AFB6853601D
:100E200000BF1437BD4680BC704700BF00100240B1
:100E300080B400AF044B5B68DBB203F00C03DBB2A1
:100E40001846BD4680BC70470010024080B485B093
:100E500000AF78600023FB60094B5B68FB60FB68B8
:100E600023F0F003FB60FA687B681343FB60044ADD
:100E7000FB68536000BF1437BD4680BC704700BF9D
:100E80000010024080B485B000AF78600023FB60A2
:100E9000094B5B68FB60FB6823F4E063FB60FA6866
:100EA0007B681343FB60044AFB68536000BF143740
:100EB000BD4680BC704700BF0010024080B485B0C2
:100EC00000AF78600023FB60094B5B68FB60FB6848
:100ED00023F46053FB607B68DB00FA681343FB601C
:100EE000034AFB68536000BF1437BD4680BC70479F
:100EF0000010024080B485B000AF78600023FB6032
:100F0000094B5B68FB60FB6823F44043FB60FA68B5
:100F10007B681343FB60044AFB68536000BF1437CF
:100F2000BD4680BC704700BF0010024080B483B053
:100F300000AF78600B46FB70FB78002B06D00949A8
:100F4000084B5A697B6813434B6106E00549054B22
:100F50005A697B68DB4313404B6100BF0C37BD46C9
:100F600080BC70470010024080B483B000AF78604E
:100F70000B46FB70FB78002B06D00949084B9A6999
:100F80007B6813438B6106E00549054B9A697B68D2
:100F9000DB4313408B6100BF0C37BD4680BC7047FC
:100FA0000010024080B483B000AF78600B46FB7045
:100FB000FB78002B06D00949084BDA697B6813439C
:100FC000CB6106E00549054BDA697B68DB431340DA
:100FD000CB6100BF0C37BD4680BC7047001002409B
:100FE00080B487B000AF0346FB710023FB60002391
:100FF0007B610023FB74FB795B09DBB2FB60FB6860
:10100000012B03D1124B1B687B6109E0FB68022BAB
:1010100003D10F4B1B6A7B6102E00D4B5B6A7B6166
:10102000FB7903F01F03FB607A69FB6822FA03F384
:1010300003F00103002B02D00123FB7401E0002325
:10104000FB74FB7C18461C37BD4680BC704700BF54
:101050000010024080B483B000AF0346FB80FB88E1
:101060004FF42242B2FBF3F39BB218460C37BD4655
:1010700080BC704780B58AB000AF07F11C031846EA
:10108000FFF728F90023FB834FF480737B8448F635
:10109000A043BB8341F288333B8407F11C0319460C
:1010A0001D48FFF733F820211B48FFF771F9012293
:1010B00001211948FFF748F907F110031846FFF717
:1010C00009F900237B8241F28830FFF7C3FF034612
:1010D0003B824FF64A73BB820023FB8207F1100369
:1010E00019464FF08040FFF711F860233B80002342
:1010F0003B8101237B800023FB803B4619464FF058
:101100008040FFF77FF801214FF08040FFF7FCF8A7
:1011100000BF2837BD4680BD0004004080B500AF49
:1011200001210248FFF7F0F800BF80BD0004004035
:1011300080B500AF00210248FFF7E6F800BF80BD90
:101140000004004080B485B000AF78600023FB60ED
:10115000344BFB607B689B79002B4FD03149314B7E
:101160001A687B681B68DB4313400B602D492D4BCD
:101170005A687B681B68DB4313404B607B681B79B4
:101180001A46FB681344FB60FB68FA6811687A68CA
:1011900012680A431A602349224B9A687B681B68CD
:1011A000DB4313408B601F491E4BDA687B681B686A
:1011B000DB431340CB607B685B79102B0ED1194960
:1011C000184B9A687B681B6813438B601549154B55
:1011D000DA687B681B681343CB601DE0114BFB6032
:1011E0007B685B791A46FB681344FB60FB68FA680E
:1011F00011687A6812680A431A600DE07B681B79EF
:101200001A46FB681344FB60FB68FA6811687A6849
:101210001268D2430A401A6000BF1437BD4680BC32
:10122000704700BF0004014080B485B000AF786013
:101230000023FB730023BB600C4B1A687B681340D0
:10124000BB600A4B5A697B681340002B05D0BB6812
:10125000002B02D00123FB7301E00023FB73FB7B17
:1012600018461437BD4680BC704700BF00040140DB
:1012700080B483B000AF7860034A7B68536100BFDD
:101280000C37BD4680BC70470004014080B485B077
:1012900000AF786039600023FB600023FB727B683D
:1012A0005B68FB60FB6823F4702323F48073FB60AE
:1012B0003B681A683B681B791B021343FA681343A7
:1012C000FB607B68FA685A607B689B68FB60FA6821
:1012D000164B1340FB603B68DA683B689B681A4317
:1012E0003B685B795B001343FA681343FB607B68E0
:1012F000FA689A607B68DB6AFB60FB6823F4700322
:10130000FB603B681B7C013BDAB2FB7A1343FB7248
:10131000FB7A1B05FA681343FB607B68FA68DA62A4
:1013200000BF1437BD4680BC704700BFFDF7F1FF1A
:1013300080B483B000AF78600B46FB70FB78002B65
:1013400006D07B689B6843F001027B689A6005E0E9
:101350007B689B6823F001027B689A6000BF0C37B2
:10136000BD4680BC704700BF80B483B000AF7860DA
:101370000B46FB70FB78002B06D07B689B6843F420
:1013800080727B689A6005E07B689B6823F48072BA
:101390007B689A6000BF0C37BD4680BC704700BFB9
:1013A00080B485B000AF78600B467B8013467B70BD
:1013B0000023FB737B88FB737B78002B06D07B6854
:1013C0005A68FB7B1A437B685A6006E07B685A6860
:1013D000FB7BDB431A407B685A6000BF1437BD4675
:1013E00080BC704780B483B000AF78607B689B6836
:1013F00043F008027B689A6000BF0C37BD4680BC92
:10140000704700BF80B483B000AF78607B689B6892
:1014100043F004027B689A6000BF0C37BD4680BC75
:10142000704700BF80B485B000AF78600023FB73C5
:101430007B689B6803F00403002B02D00123FB733D
:1014400001E00023FB73FB7B18461437BD4680BCCC
:10145000704700BF80B483B000AF78600B46FB706C
:10146000FB78002B06D07B689B6843F4A0027B6866
:101470009A6005E07B689B6823F4A0027B689A6011
:1014800000BF0C37BD4680BC704700BF80B485B03C
:1014900000AF7860084611461A460346FB700B46BB
:1014A000BB7013467B700023FB600023BB60FB789E
:1014B000092B23D97B68DB68FB60FB78A3F10A0268
:1014C00013465B001344072202FA03F3BB60BB68B8
:1014D000DB43FA681340FB607978FB78A3F10A02DA
:1014E00013465B00134401FA03F3BB60FA68BB6860
:1014F0001343FB607B68FA68DA601EE07B681B6957
:10150000FB60FA7813465B001344072202FA03F3E8
:10151000BB60BB68DB43FA681340FB607978FA78FC
:1015200013465B00134401FA03F3BB60FA68BB681F
:101530001343FB607B68FA681A61BB78062B21D8DD
:101540007B685B6BFB60BB785A1E13469B001344A1
:101550001F2202FA03F3BB60BB68DB43FA68134047
:10156000FB60F978BB785A1E13469B00134401FABE
:1015700003F3BB60FA68BB681343FB607B68FA68DF
:101580005A6347E0BB780C2B21D87B681B6BFB6050
:10159000BB78DA1F13469B0013441F2202FA03F3A1
:1015A000BB60BB68DB43FA681340FB60F978BB782B
:1015B000DA1F13469B00134401FA03F3BB60FA6879
:1015C000BB681343FB607B68FA681A6322E07B68A0
:1015D000DB6AFB60BB78A3F10D0213469B0013444A
:1015E0001F2202FA03F3BB60BB68DB43FA681340B7
:1015F000FB60F978BB78A3F10D0213469B001344FE
:1016000001FA03F3BB60FA68BB681343FB607B68B5
:10161000FA68DA6200BF1437BD4680BC704700BF6D
:1016200080B483B000AF78607B68DB6C9BB21846F7
:101630000C37BD4680BC704780B485B000AF786081
:101640000B46FB700023FB737B681A68FB78134022
:10165000002B02D00123FB7301E00023FB73FB7B13
:1016600018461437BD4680BC704700BF80B483B0B5
:1016700000AF78600B46FB70FB78DA437B681A603A
:1016800000BF0C37BD4680BC704700BF80B485B03A
:1016900000AF78600B46FB700023FB600023FB72F9
:1016A0000023BB7213E07B681B88B3F57A6F0BD203
:1016B0007B681B881A46FB681344FB607B68023317
:1016C0007B60FB7A0133FB72BB7A0133BB72BA7A5F
:1016D000FB789A42E7D3FB7AFA68B2FBF3F39BB24A
:1016E00018461437BD4680BC704700BF80B400AFB9
:1016F000024B1B681846BD4680BC70472000002086
:1017000080B483B000AF0346FB71124B1B78002BF3
:1017100008D1FB799AB2104B1B8813449AB20E4B36
:101720001A8011E0FB799AB20C4B1B8813449AB2D1
:101730000A4B1A80094B1A88094B1B889A4203D915
:10174000074B1A88054B1A8000BF0C37BD4680BC7A
:10175000704700BF080000200200002000000020A9
:101760000A00002080B483B000AF0346FB710D4B2C
:101770001B78002B08D10C4B1A88FB799BB2D31A2B
:101780009AB2094B1A8007E0084B1A88FB799BB282
:10179000D31A9AB2054B1A8000BF0C37BD4680BCE5
:1017A000704700BF08000020020000200000002059
:1017B00080B584B000AF0346FB80FFF797FFF86069
:1017C00000BFFFF793FF0246FB68D21AFB889A42DC
:1017D000F7D300BF1037BD4680BD00BF80B485B0D1
:1017E00000AF786039600023FB607B681B68FB609A
:1017F000FB6823F4FF4323F07003FB603B689A68A7
:101800003B681B6A1A433B681B691A433B685B6968
:101810001A433B689B691A433B68DB691A433B6880
:101820005B6A1A433B689B6A1343FA681343FB6085
:101830007B68FA681A603B68DA687B685A603B68C4
:101840001A687B689A603B685A687B68DA6000BFF8
:101850001437BD4680BC704780B483B000AF786059
:101860000B46FB70FB78002B06D07B681B6843F0AF
:1018700001027B681A6006E07B681A684FF6FE7307
:1018800013407A68136000BF0C37BD4680BC7047B8
:1018900080B485B000AFF860B9601346FB71FB7986
:1018A000002B06D0FB681A68BB681A43FB681A60F5
:1018B00006E0FB681A68BB68DB431A40FB681A60E5
:1018C00000BF1437BD4680BC704700BF80B483B0F2
:1018D00000AF78607B6803F08053002B03D0064A8A
:1018E0007B68536002E0054A7B68536000BF0C3799
:1018F000BD4680BC704700BF0004024000000240AB
:1019000080B487B000AF786000237B6100233B6127
:101910000F23FB607B68DB78002B3AD0274BDB681A
:10192000DB4303F4E0631B0A7B617B69C3F10403BF
:101930003B61FA687B6922FA03F3FB607B685B78A2
:101940001A463B6902FA03F37B617B689B781A466F
:10195000FB6813407A6913437B617B691B017B61E0
:10196000174A7B681B787969C9B213440A4683F821
:101970000023134A7B681B785B09DBB218467B683F
:101980001B7803F01F03012101FA03F342F8203012
:101990000FE00B497B681B785B09DBB218467B685C
:1019A0001B7803F01F0301229A4000F1200341F845
:1019B000232000BF1C37BD4680BC704700ED00E00F
:1019C00000E100E080B483B000AF78607B68042B56
:1019D00006D1094A084B1B6843F00403136005E075
:1019E000054A054B1B6823F00403136000BF0C3746
:1019F000BD4680BC704700BF10E000E080B582B0FB
:101A000000AF0B233B710123FB7109237B71012381
:101A1000BB713B1D1846FFF773FF12233B71012377
:101A2000FB710A237B710223BB713B1D1846FFF734
:101A300067FF08233B700123FB7001237B700023A9
:101A4000BB703B461846FFF75BFF00BF0837BD463B
:101A500080BD00BF80B582B000AF04233B6000238F
:101A60003B7110237B710123BB713B461846FFF786
:101A700069FB00BF0837BD4680BD00BF0000000005
:101A800090B583B000AFFFF7F7F832212848FFF791
:101A9000FDFD0346184600F00FFA1FA3D3E900230B
:101AA00000F070FA03460C46184621461CA3D3E901
:101AB000002300F091FB03460C461846214600F037
:101AC00073FC03467B60786800F008FA16A3D3E93C
:101AD000002300F081FB03460C461846214600F027
:101AE00063FC0246134B1A60134B1A68114B1B68B8
:101AF0001946104600F05CFD03461A460F4B1A606B
:101B00000220FFF7E3FEFFF7A9F800BF0C37BD4640
:101B100090BD00BFAFF300806666666666660A40E9
:101B200000000000C0FEE340FCA9F1D24D62803FFE
:101B3000240000200C0000201000002014000020D1
:101B400098B500AF02211A48FFF776FD0346002B37
:101B500021D01748FFF764FD0346184600F0ACF9A2
:101B60000FA3D3E9002300F00DFA03460C461846F4
:101B700021460DA3D3E9002300F004FA03460C46E6
:101B80001846214600F010FC02460A4B1A6020213C
:101B90000748FFF76BFD00BF98BD00BFAFF30080A3
:101BA0003D0AD7A3703D0840108F691261684A3F13
:101BB000002801401000002080B500AF0420FFF78E
:101BC00033FB0346002B12D004210A48FEF7A6FD82
:101BD0000346002B04D0FFF741F8FFF7A9FA03E012
:101BE000FFF74AF8FFF79AFA0420FFF741FB00BF1E
:101BF00080BD00BF0008014080B400AF044B1B68EB
:101C00000133034A136000BFBD4680BC704700BF6C
:101C10002000002081F0004102E000BF83F000437B
:101C200030B54FEA41044FEA430594EA050F08BF77
:101C300090EA020F1FBF54EA000C55EA020C7FEA3B
:101C4000645C7FEA655C00F0E2804FEA5454D4EBB8
:101C50005555B8BF6D420CDD2C4480EA020281EA82
:101C6000030382EA000083EA010180EA020281EABA
:101C70000303362D88BF30BD11F0004F4FEA01310C
:101C80004FF4801C4CEA113102D0404261EB41011B
:101C900013F0004F4FEA03334CEA133302D05242A1
:101CA00063EB430394EA050F00F0A780A4F101045D
:101CB000D5F1200E0DDB02FA0EFC22FA05F2801897
:101CC00041F1000103FA0EF2801843FA05F359417D
:101CD0000EE0A5F120050EF1200E012A03FA0EFCFC
:101CE00028BF4CF0020C43FA05F3C01851EBE37126
:101CF00001F0004507D54FF0000EDCF1000C7EEB43
:101D000000006EEB0101B1F5801F1BD3B1F5001F80
:101D10000CD349085FEA30004FEA3C0C04F101049F
:101D20004FEA445212F5800F80F09A80BCF1004FC8
:101D300008BF5FEA500C50F1000041EB045141EA4A
:101D4000050130BD5FEA4C0C404141EB010111F44B
:101D5000801FA4F10104E9D191F0000F04BF0146F6
:101D60000020B1FA81F308BF2033A3F10B03B3F1D4
:101D700020020CDA0C3208DD02F1140CC2F10C0264
:101D800001FA0CF021FA02F10CE002F11402D8BFC2
:101D9000C2F1200C01FA02F120FA0CFCDCBF41EA8E
:101DA0000C019040E41AA2BF01EB0451294330BD5D
:101DB0006FEA04041F3C1CDA0C340EDC04F114043A
:101DC000C4F1200220FA04F001FA02F340EA030011
:101DD00021FA04F345EA030130BDC4F10C04C4F157
:101DE000200220FA02F001FA04F340EA0300294637
:101DF00030BD21FA04F0294630BD94F0000F83F481
:101E0000801306BF81F480110134013D4EE77FEA63
:101E1000645C18BF7FEA655C29D094EA050F08BFAF
:101E200090EA020F05D054EA000C04BF1946104690
:101E300030BD91EA030F1EBF0021002030BD5FEAD4
:101E4000545C05D14000494128BF41F0004130BDFC
:101E500014F580043CBF01F5801130BD01F0004550
:101E600045F0FE4141F470014FF0000030BD7FEAC3
:101E7000645C1ABF194610467FEA655C1CBF0B46BE
:101E8000024650EA013406BF52EA033591EA030FD5
:101E900041F4002130BD00BF90F0000F04BF0021CD
:101EA000704730B54FF4806404F132044FF0000500
:101EB0004FF0000150E700BF90F0000F04BF002179
:101EC000704730B54FF4806404F1320410F00045DF
:101ED00048BF40424FF000013EE700BF42004FEADA
:101EE000E2014FEA31014FEA02701FBF12F07F4357
:101EF00093F07F4F81F06051704792F0000F14BF54
:101F000093F07F4F704730B54FF4607401F0004597
:101F100021F0004120E700BF50EA010208BF7047EE
:101F200030B54FF000050AE050EA010208BF7047E3
:101F300030B511F0004502D5404261EB41014FF44C
:101F4000806404F132045FEA915C3FF4DCAE4FF050
:101F500003025FEADC0C18BF03325FEADC0C18BF37
:101F6000033202EBDC02C2F1200300FA03FC20FA88
:101F700002F001FA03FE40EA0E0021FA02F11444D5
:101F8000C1E600BF70B54FF0FF0C4CF4E06C1CEAEA
:101F900011541DBF1CEA135594EA0C0F95EA0C0F5F
:101FA00000F0DEF82C4481EA030621EA4C5123EAD2
:101FB0004C5350EA013518BF52EA033541F4801101
:101FC00043F4801338D0A0FB02CE4FF00005E1FBB4
:101FD00002E506F00042E0FB03E54FF00006E1FBFE
:101FE00003569CF0000F18BF4EF0010EA4F1FF0441
:101FF000B6F5007F64F5407404D25FEA4E0E6D4181
:1020000046EB060642EAC62141EA55514FEAC52091
:1020100040EA5E504FEACE2EB4F1FD0C88BFBCF50D
:10202000E06F1ED8BEF1004F08BF5FEA500E50F1BE
:10203000000041EB045170BD06F0004646EA010184
:1020400040EA020081EA0301B4EB5C04C2BFD4EBB6
:102050000C0541EA045170BD41F480114FF0000EAF
:10206000013C00F3AB8014F1360FDEBF002001F01D
:10207000004170BDC4F10004203C35DA0C341BDC97
:1020800004F11404C4F1200500FA05F320FA04F069
:1020900001FA05F240EA020001F0004221F000419D
:1020A00010EBD37021FA04F642EB06015EEA430E10
:1020B00008BF20EAD37070BDC4F10C04C4F1200540
:1020C00000FA04F320FA05F001FA04F240EA0200F3
:1020D00001F0004110EBD37041F100015EEA430EC4
:1020E00008BF20EAD37070BDC4F1200500FA05F2E4
:1020F0004EEA020E20FA04F301FA05F243EA020363
:1021000021FA04F001F0004121FA04F220EA020071
:1021100000EBD3705EEA430E08BF20EAD37070BDB7
:1021200094F0000F0FD101F00046400041EB010197
:1021300011F4801F08BF013CF7D041EA060195F079
:10214000000F18BF704703F00046520043EB030333
:1021500013F4801F08BF013DF7D043EA0603704720
:1021600094EA0C0F0CEA135518BF95EA0C0F0CD02B
:1021700050EA410618BF52EA4306D1D181EA030171
:1021800001F000414FF0000070BD50EA410606BF6B
:102190001046194652EA430619D094EA0C0F02D1B0
:1021A00050EA013613D195EA0C0F05D152EA0336F5
:1021B0001CBF104619460AD181EA030101F0004113
:1021C00041F0FE4141F470014FF0000070BD41F05C
:1021D000FE4141F4780170BD70B54FF0FF0C4CF436
:1021E000E06C1CEA11541DBF1CEA135594EA0C0F55
:1021F00095EA0C0F00F0A7F8A4EB050481EA030EA2
:1022000052EA03354FEA013100F088804FEA033388
:102210004FF0805545EA131343EA12634FEA022256
:1022200045EA111545EA10654FEA00260EF0004117
:102230009D4208BF964244F1FD0404F5407402D269
:102240005B084FEA3202B61A65EB03055B084FEAFA
:1022500032024FF480104FF4002CB6EB020E75EBF7
:10226000030E22BFB61A754640EA0C005B084FEA1F
:102270003202B6EB020E75EB030E22BFB61A75469C
:1022800040EA5C005B084FEA3202B6EB020E75EBE7
:10229000030E22BFB61A754640EA9C005B084FEA5F
:1022A0003202B6EB020E75EB030E22BFB61A75466C
:1022B00040EADC0055EA060E18D04FEA051545EA5B
:1022C00016754FEA06164FEAC30343EA52734FEA04
:1022D000C2025FEA1C1CC0D111F4801F0BD141EA7D
:1022E00000014FF000004FF0004CB6E711F4801FE2
:1022F00004BF01430020B4F1FD0C88BFBCF5E06FC2
:102300003FF6AFAEB5EB030C04BFB6EB020C5FEAD1
:10231000500C50F1000041EB045170BD0EF0004E26
:102320004EEA113114EB5C04C2BFD4EB0C0541EA58
:10233000045170BD41F480114FF0000E013C90E655
:1023400045EA060E8DE60CEA135594EA0C0F08BF19
:1023500095EA0C0F3FF43BAF94EA0C0F0AD150EA18
:1023600001347FF434AF95EA0C0F7FF425AF1046AB
:1023700019462CE795EA0C0F06D152EA03353FF4D3
:10238000FDAE1046194622E750EA410618BF52EA50
:1023900043067FF4C5AE50EA41047FF40DAF52EA24
:1023A00043057FF4EBAE12E74FEA4102B2F1E0439E
:1023B00024BFB3F5001CDCF1FE5C0DD901F0004C2C
:1023C0004FEAC0024CEA5070B2F1004F40EB83007C
:1023D00008BF20F00100704711F0804F21D113F1A8
:1023E0003872BCBF01F00040704741F480114FEAE1
:1023F0005252C2F11802C2F1200C10FA0CF320FA6A
:1024000002F018BF40F001004FEAC1234FEAD32386
:1024100003FA0CFC40EA0C0023FA02F34FEA4303F0
:10242000CCE77FEA625307D150EA01331EBF4FF079
:10243000FE4040F44000704701F0004040F0FE4094
:1024400040F40000704700BF4FF0FF0C1CEAD05270
:102450001EBF1CEAD15392EA0C0F93EA0C0F6FD007
:102460001A4480EA010C400218BF5FEA41211ED0E5
:102470004FF0006343EA501043EA5111A0FB0131D1
:102480000CF00040B1F5000F3EBF490041EAD371A6
:102490005B0040EA010062F17F02FD2A1DD8B3F122
:1024A000004F40EBC25008BF20F00100704790F091
:1024B000000F0CF0004C08BF49024CEA502040EAE3
:1024C00051207F3AC2BFD2F1FF0340EAC2507047A9
:1024D00040F400004FF00003013A5DDC12F1190FE7
:1024E000DCBF00F000407047C2F10002410021FA59
:1024F00002F1C2F1200200FA02FC5FEA310040F171
:10250000000053EA4C0308BF20EADC70704792F0E9
:10251000000F00F0004C02BF400010F4000F013A21
:10252000F9D040EA0C0093F0000F01F0004C02BF1C
:10253000490011F4000F013BF9D041EA0C018FE78B
:102540000CEAD15392EA0C0F18BF93EA0C0F0AD091
:1025500030F0004C18BF31F0004CD8D180EA0100B7
:1025600000F00040704790F0000F17BF90F0004F50
:10257000084691F0000F91F0004F14D092EA0C0F32
:1025800001D142020FD193EA0C0F03D14B0218BFC5
:10259000084608D180EA010000F0004040F0FE400B
:1025A00040F40000704740F0FE4040F440007047A7
:1025B0004FF0FF0C1CEAD0521EBF1CEAD15392EA26
:1025C0000C0F93EA0C0F69D0A2EB030280EA010C16
:1025D00049024FEA402037D04FF0805343EA1111AF
:1025E00043EA10130CF000408B4238BF5B0042F10D
:1025F0007D024FF4000C8B4224BF5B1A40EA0C00B2
:10260000B3EB510F24BFA3EB510340EA5C00B3EBE3
:10261000910F24BFA3EB910340EA9C00B3EBD10FD1
:1026200024BFA3EBD10340EADC001B0118BF5FEA23
:102630001C1CE0D1FD2A3FF650AF8B4240EBC2504C
:1026400008BF20F0010070470CF0004C4CEA50200D
:102650007F32C2BFD2F1FF0340EAC250704740F45C
:1026600000004FF00003013A37E792F0000F00F04E
:10267000004C02BF400010F4000F013AF9D040EACC
:102680000C0093F0000F01F0004C02BF490011F460
:10269000000F013BF9D041EA0C0195E70CEAD15358
:1026A00092EA0C0F08D142027FF47DAF93EA0C0F3F
:1026B0007FF470AF084676E793EA0C0F04D14B0223
:1026C0003FF44CAF08466EE730F0004C18BF31F0D5
:1026D000004CCAD130F000427FF45CAF31F00043CF
:0826E0007FF43CAF5FE700BF8F
:0400000508000000EF
:00000001FF
